:104000003E00DF3E04DF3E12DF2146407EFEFFC859
:1040100047234E2356235E23E53E07DF3E0CDFE1B8
:1040200018EA3E00DF3E04DF3E11DF2146407EFEFF
:10403000FF280F47234E2356235E23E53E07DFE18B
:1040400018EC3E0CDFC92E1E301C2D1F311C331BFB
:10405000381B2E202E1F2627232725271E213B1203
:1040600041122C172C141E2124271E211E1D3B1328
:1040700041132D162D121E201E1E5D265E213E149C
:104080003212440142031B2C21311A241A27162410
:104090001824232C222C5A335A3427312A352A3516
:1040A0002E37473E5834451F491E4A1D511E451F95
:1040B000481E4F1D481D302030222E2231202F2235
:1040C0003122302232211E1822145B1E5F2045123D
:1040D00045143A123C153D293E293C2B3C2B3D29E9
:1040E0003D293C273C272529262D15251B2C1E273D
:1040F0001E2A1B291925262A252C1D22172419259D
:104100001E251F25202C232523225D265F203E15FA
:10411000331246014304532C56302C2E352B3932A2
:104120004831532C51303E3D4A3C3E3E443E443D96
:10413000493D463D59353F314434362B332E4C2AC8
:10414000572F3C3345315D325B2E5C2F5B325B3049
:104150005A335A305A304B254D255122512349228A
:104160004E2246324F3138333E383D314A314338A2
:104170004C33242224265F205F2331123112460261
:104180004204252425275E2664223012301643047B
:1041900042011D2E253120261E2B1B2217232127ED
:1041A0001B242522271C6422641F2F162E12410473
:1041B0004705311D331C321D341C321C391D331D83
:1041C000351D19261927272D272B17281E2D252B9E
:1041D000272D3D273C283C273C28452744284527B8
:1041E0004528452B472B382C3F2C3C293F2A372A82
:1041F0003B2C3322352137223621352235223321FB
:1042000037212521281C6420621F301530124105FA
:104210004905271C27195D205D1D301530134A05FF
:104220004E052E082A062A062C092C092C072C09D3
:104230002508281B28195D1F5D1F2E152E124F05FE
:1042400048061627192B202A232B1E2C212E162533
:10425000172A6B2567236B246B296B276B256B272C
:104260006A294C33443845314C32463142342D2D85
:10427000343137333E383D3247322E2E2D303D38E3
:10428000463620122310210C211123102313221350
:104290001D194B224D214A214D22452246214621FE
:1042A00048215C2E5B2B5C2D5D295D295D2C5C2AF1
:1042B0005C2B5E2D5F2E5F2E6029612B602D5E2CA6
:1042C0005F2D621E61155D205D1D4B064B074C077F
:1042D0004E071E271F2B162915261A2A2231202A9F
:1042E000232A37393C3C4A3B57354D394F384A3CF5
:1042F0005139562D572E432E432E312E302E3A3320
:104300003A33562D552F4A324F312E302F302E3022
:104310002E303A1E39203A1E3A203A1F3B1F391ED2
:104320003B1F4F2C552F3C313E312E2F323038342D
:104330003C376216631E5C1E5D1B4D0750074E081E
:104340005108641A60155D1B5B1E51075F106010F9
:104350005308612D612B5F2C5F2C61286529612832
:104360006529682968265F256323451F471D481D69
:10437000461F511D491C481D511E6825662565258F
:104380006825682967266826682765256826371FF7
:104390002E2138213A2236203922322035204D2351
:1043A0004F2149214C22462348224A244E243124BD
:1043B0003723352432243223332433233423611723
:1043C000631A5D1B5A1861115D115D1161145A1752
:1043D0005D1A1E1D1F1B5F1360143F134113201B2A
:1043E0001F1D1F1A1E194213461543134714612936
:1043F0006227632C632A642B6425642B65281924A7
:104400001927172517291B242027202D222E222A81
:10441000212C222B232B222C232C1F3023314F2104
:10442000482250214E254F25502248244D2524084E
:10443000280824092609260923092309210A3E2BD5
:10444000382B452A452A3E2B3B2B3B2C3E2C462223
:104450004721282F2C362730283326312E35283176
:104460002C3629332F362A342F372931373B273240
:1044700031371E1A201648144311431145144513B1
:10448000451261246523622368236723622368231E
:104490006A245139573756365835583659335935B5
:1044A0005A316B295E325F32642D642D6030692B86
:1044B000662D250A210D260A200E200D201320131B
:1044C000230B452745284A2A4A2A432B462A442BB0
:1044D000462B35313B32473347314F2B552C352C4A
:1044E000302D4F2B572F3F38443747364C332E2F24
:1044F00031301D18221345124B124A134C154F141C
:10450000531723131E1846124E134E1348135014FC
:1045100053163035313630363E3E3035363A323548
:104520003B3D3C3D383B383B3E3C3236373B3A3CEA
:10453000463E49294A2A4A29492B4A2A4A2B482BCE
:104540004A2B351C3A1D371D3A1C3A1C391C381CA5
:10455000361C4C2A4F2C45384A354A323531432EC9
:104560004330391F3820381F3A2033213621352176
:104570003621392438253A2438243A2339253B2357
:104580003A24291A29165215551556155616561538
:1045900059142917291958155A155A155A185917FF
:1045A00059152A162B132C132C1743013E043D04D6
:1045B00042013D363C3849334F303F343F333E377C
:1045C0004338223024311B251928272E2731202B50
:1045D0001E29253121302630282F182B1D2D182A71
:1045E0001F2F512E572E3E373E371B221E223D3D98
:1045F000473D482448244E244E244A214A2147223C
:1046000048232F2E322D42334334552D5630532E0E
:104610005031451E4D1C4A1C4F1C501D451E412C3F
:10462000372B372B3929372A3829672B5D326131EF
:104630006B295D315A313A233A252D20311C3E0336
:104640002E072E073D043A0533072E082E063C366A
:0F4650004137302E322E432F433043334333FF55
:00000001FF