:10000000C3F005FFFFFFFFFFC32003FFFFFFFFFF5C
:10001000C3E003FFFFFFFFFFC39004FFFFFFFFFFED
:10002000FFFFFFFFFFFFFFFF213002C34100FFFF83
:10003000213005C34100FFFFC7FFFFFFFFFFFFFFA8
:10004000FF220008C3B001FFFFFFFFFFFFFFFFFF1C
:10005000FFFFFFFFFFFFFFFFFFFFFFFFFFFFFFFFB0
:10006000FFFFFFFFFFFFDB00E61FED47C931D00FA9
:10007000CD3101CD8E013AF90FFE00C29600ED5749
:10008000FE10DA8800C3E30021F70FCD6F01ED6F9A
:1000900023ED6FC3DA00ED57FE10DAB700AF32FA86
:1000A0000FED57FE13CADA00FE12CAC200FE11CAD3
:1000B000C600FE10CAD0002AF70FCD7B01ED6FC33A
:1000C000E3002AF70FE92AF70F2B22F70FC3E3000B
:1000D0002AF70F2322F70FC3E3003E00060421F3A3
:1000E0000F18073E67060221F10F32F90FD9ED5BB9
:1000F000F70FCD02011ACD0E01D9CBE62310FBC3B9
:100100006D0021F30F7BCD15017ACD1501C921F1C9
:100110000FCD1501C9F5CD26017723F10F0F0F0F74
:10012000CD26017723C9E5215F01E60F856F7EE1CA
:10013000C93EFFED47CD4001ED57FEFFC0C3310181
:10014000DDE5010106DD7E00D302DD2379D301CB9D
:10015000274F3E0A3DC25401D30110E9DDE1C9EB4E
:1001600028CDAD2EA7E729EF2F6FE6C3ECC747CD0B
:100170007B01C0233E00772BED57C9ED57473AFA74
:100180000FFE0078C0AF773D32FA0F78C9000E0A33
:1001900021500029110100AFD3023DD3014110FECF
:1001A000EE80ED5220F5C9FFFFFFFFFFFFFFFFFFCD
:1001B000ED5B00081AE61FFE1FC80000FE1ECAB055
:1001C00001FE00CAE9014713D521F801CDE301F58D
:1001D00078211002CDE3016F2600F14FCD9301D1BC
:1001E000C3B4015F1600197EC9D51100101B7AB384
:1001F000C2ED01D113C3B4018C837C757067625C5E
:1002000057524E4845413C3936322F2C2A27252358
:10021000191A1C1D1E20232527292C2E3133373A6D
:100220003D4145494D52575C10FFFFFFFFFFFFFF67
:1002300006060A0D060D0A0D121614120F11120FE2
:100240000D0D0D0A120F0D0A0806080A0F0A0D0FF0
:1002500006060A0D060D0A0D121614120F11120FC2
:100260000D0D0D0A120F0D0A0806080A0612001ECF
:10027000FD2A0008DD21F10F060621F10F360023CB
:1002800010FB060611F70F21F60F7E122B1B10FA3A
:10029000FD7E00FD23E61FFE1FC8FE1E28D221B3EF
:1002A00002CDE30132F10F3E80F5CD4001F13D205A
:1002B000F818CF006FE6C3ECC747E36E28E8CEC25C
:1002C0006BEB4F2F43A746EAE0AECD0410180000B9
:1002D0000008050C0C0E0013080511050013080991
:1002E0001200091200130805001305031809191953
:1002F000191904051209070D0504000216000A0E5B
:10030000080D00080111041600060E110013051A4D
:100310000000000000001EFFFFFFFFFFFFFFFFFFC8
:10032000DD21F10FAF32FA0F32FB0F060621F10F7C
:1003300036002310FB3AF50FFE00203711F50F2190
:10034000F40F06047E122B1B10FAED5FCDB50332BD
:10035000F10F3E0000F53EFFED473AFB0FCDB50330
:1003600032F60FCD4001ED57FEFFC48E03F13D2064
:10037000E418C2CD8E01060621F10F36002310FBD2
:100380003AFA0F21F30FCD1501CD31011892FE106D
:1003900020083AFB0F3C32FB0FC93AF60F4F21F50C
:1003A0000F06057EB9200A36003AFA0F3C2732FACA
:1003B0000F2B10EFC9E607CD2601C9160E14000C4D
:1003C0000E1205001213140F09041A1F0E08000D57
:1003D0000E19191909000C0E12131A1FFFFFFFFF47
:1003E000DD21F10F3E2332FA0F21F10F0606360010
:1003F0002310FB1E00CD6604CD3101ED57FE043005
:10040000F4FE0028F05F3AFA0FBB284438429327E5
:1004100032FA0FCD660421F60F36AE1600CD40013C
:100420001520FA3AFA0FFE01282C3D27D604273072
:10043000FBC60427FE0028105F3AFA0F932732FA12
:100440000F21F60F362818ADED5FE603282818E8CF
:1004500011BB03C3590411CC03ED530008CD700246
:10046000CD3101C3E00321F10F3AFA0FCD1501237D
:100470007BCD260177C93CC33804FF14121417172B
:100480001214101F0111011101111FFFFFFFFFFFC7
:10049000DD21F10FFD2100083E50FD77003E20FDDB
:1004A0007701AFFD770221F10F060636002310FB1E
:1004B0001680FD7E0121F10FCD15012323FD7E0065
:1004C000CD15013EFFED47CD4001ED57FEFFC4F3D2
:1004D0000415C2B204FD7E02D60127FD770247FD56
:1004E0007E008027FE00CA1105FE60301BFD7700EC
:1004F000C3B004FD7E01FE00C83D27FD7701FD7EEF
:1005000002C60227FD7702C9118404DD210000180C
:1005100003117B04ED530008CDB001CD3101C39030
:1005200004FFFFFFFFFFFFFFFFFFFFFFFFFFFFFFD6
:100530000B0A080A0A0A0606060B0A080A0A0A0A29
:100540000A0A0B0A080A0A0A0606060A080A0D0D14
:100550000D0D0D000D05080B0B0B0606060B0A080A
:100560000A0A0A0606060B0A0608080808080A0B03
:100570000A080606060606060000001EFFFFFFFF2B
:1005800021000831D00FDD21F10F22F70FAF32F932
:100590000F32FA0F0E0A215000CD93010E202130A8
:1005A00000CD9301C3E300FFFFFFFFFFFFFFFFFF4D
:1005B00021000811000B7EFEFFC2C205210008C306
:1005C000B605D3031AFEFFC2D00511000BC3C40544
:1005D000D304CDE105131AD304CDE1051323C3B62B
:1005E0000501FF030B78B1C2E405C9FFFFFFFFFF60
:1005F000ED73D80F31F00FF5C5D5E5DDE5FDE50864
:10060000D9F5C5D5E5ED57F5C38005FFFFFFFFFF21
:10061000FFFFFFFFFFFFFFFFFFFFFFFFFFFFFFFFEA
:10062000FFFFFFFFFFFFFFFFFFFFFFFFFFFFFFFFDA
:10063000FFFFFFFFFFFFFFFFFFFFFFFFFFFFFFFFCA
:10064000FFFFFFFFFFFFFFFFFFFFFFFFFFFFFFFFBA
:103FF0004D4F4E312E4220004A4838332E31360084
:00000001FF
